{
  "contracts/Campaign.sol": {
    "CampaignFactory": {
      "abi": [
        {
          "anonymous": false,
          "inputs": [
            {
              "indexed": false,
              "internalType": "string",
              "name": "title",
              "type": "string"
            },
            {
              "indexed": false,
              "internalType": "uint256",
              "name": "requiredAmount",
              "type": "uint256"
            },
            {
              "indexed": true,
              "internalType": "address",
              "name": "owner",
              "type": "address"
            },
            {
              "indexed": false,
              "internalType": "address",
              "name": "campaignAddress",
              "type": "address"
            },
            {
              "indexed": false,
              "internalType": "string",
              "name": "imgURI",
              "type": "string"
            },
            {
              "indexed": true,
              "internalType": "uint256",
              "name": "timestamp",
              "type": "uint256"
            },
            {
              "indexed": true,
              "internalType": "string",
              "name": "category",
              "type": "string"
            },
            {
              "indexed": false,
              "internalType": "address",
              "name": "vendor",
              "type": "address"
            }
          ],
          "name": "campaignCreated",
          "type": "event"
        },
        {
          "inputs": [
            {
              "internalType": "string",
              "name": "campaignTitle",
              "type": "string"
            },
            {
              "internalType": "uint256",
              "name": "requiredCampaignAmount",
              "type": "uint256"
            },
            {
              "internalType": "string",
              "name": "imgURI",
              "type": "string"
            },
            {
              "internalType": "string",
              "name": "category",
              "type": "string"
            },
            {
              "internalType": "string",
              "name": "storyURI",
              "type": "string"
            },
            {
              "internalType": "address payable",
              "name": "vendor",
              "type": "address"
            }
          ],
          "name": "createCampaign",
          "outputs": [],
          "stateMutability": "nonpayable",
          "type": "function"
        },
        {
          "inputs": [
            {
              "internalType": "uint256",
              "name": "",
              "type": "uint256"
            }
          ],
          "name": "deployedCampaigns",
          "outputs": [
            {
              "internalType": "address",
              "name": "",
              "type": "address"
            }
          ],
          "stateMutability": "view",
          "type": "function"
        }
      ],
      "evm": {
        "bytecode": {
          "linkReferences": {},
          "object": "608060405234801561001057600080fd5b5061157f806100206000396000f3fe60806040523480156200001157600080fd5b50600436106200003a5760003560e01c8063339d50a5146200003f578063489b28021462000075575b600080fd5b6200005d600480360381019062000057919062000256565b62000095565b6040516200006c9190620002cd565b60405180910390f35b6200009360048036038101906200008d919062000491565b620000d5565b005b60008181548110620000a657600080fd5b906000526020600020016000915054906101000a900473ffffffffffffffffffffffffffffffffffffffff1681565b6000868686853386604051620000eb90620001f9565b620000fc96959493929190620006b8565b604051809103906000f08015801562000119573d6000803e3d6000fd5b5090506000819080600181540180825580915050600190039060005260206000200160009091909190916101000a81548173ffffffffffffffffffffffffffffffffffffffff021916908373ffffffffffffffffffffffffffffffffffffffff160217905550836040516200018f91906200077c565b6040518091039020423373ffffffffffffffffffffffffffffffffffffffff167ff58e825c056cbffc41df3ce227605dbd94e26554373d44a3537e4cd8aba2c40b8a8a868b89604051620001e895949392919062000795565b60405180910390a450505050505050565b610d49806200080183390190565b6000604051905090565b600080fd5b600080fd5b6000819050919050565b62000230816200021b565b81146200023c57600080fd5b50565b600081359050620002508162000225565b92915050565b6000602082840312156200026f576200026e62000211565b5b60006200027f848285016200023f565b91505092915050565b600073ffffffffffffffffffffffffffffffffffffffff82169050919050565b6000620002b58262000288565b9050919050565b620002c781620002a8565b82525050565b6000602082019050620002e46000830184620002bc565b92915050565b600080fd5b600080fd5b6000601f19601f8301169050919050565b7f4e487b7100000000000000000000000000000000000000000000000000000000600052604160045260246000fd5b6200033f82620002f4565b810181811067ffffffffffffffff8211171562000361576200036062000305565b5b80604052505050565b60006200037662000207565b905062000384828262000334565b919050565b600067ffffffffffffffff821115620003a757620003a662000305565b5b620003b282620002f4565b9050602081019050919050565b82818337600083830152505050565b6000620003e5620003df8462000389565b6200036a565b905082815260208101848484011115620004045762000403620002ef565b5b62000411848285620003bf565b509392505050565b600082601f830112620004315762000430620002ea565b5b813562000443848260208601620003ce565b91505092915050565b6000620004598262000288565b9050919050565b6200046b816200044c565b81146200047757600080fd5b50565b6000813590506200048b8162000460565b92915050565b60008060008060008060c08789031215620004b157620004b062000211565b5b600087013567ffffffffffffffff811115620004d257620004d162000216565b5b620004e089828a0162000419565b9650506020620004f389828a016200023f565b955050604087013567ffffffffffffffff81111562000517576200051662000216565b5b6200052589828a0162000419565b945050606087013567ffffffffffffffff81111562000549576200054862000216565b5b6200055789828a0162000419565b935050608087013567ffffffffffffffff8111156200057b576200057a62000216565b5b6200058989828a0162000419565b92505060a06200059c89828a016200047a565b9150509295509295509295565b600081519050919050565b600082825260208201905092915050565b60005b83811015620005e5578082015181840152602081019050620005c8565b83811115620005f5576000848401525b50505050565b60006200060882620005a9565b620006148185620005b4565b935062000626818560208601620005c5565b6200063181620002f4565b840191505092915050565b62000647816200021b565b82525050565b6000819050919050565b600062000678620006726200066c8462000288565b6200064d565b62000288565b9050919050565b60006200068c8262000657565b9050919050565b6000620006a0826200067f565b9050919050565b620006b28162000693565b82525050565b600060c0820190508181036000830152620006d48189620005fb565b9050620006e560208301886200063c565b8181036040830152620006f98187620005fb565b905081810360608301526200070f8186620005fb565b9050620007206080830185620002bc565b6200072f60a0830184620006a7565b979650505050505050565b600081905092915050565b60006200075282620005a9565b6200075e81856200073a565b935062000770818560208601620005c5565b80840191505092915050565b60006200078a828462000745565b915081905092915050565b600060a0820190508181036000830152620007b18188620005fb565b9050620007c260208301876200063c565b620007d16040830186620002bc565b8181036060830152620007e58185620005fb565b9050620007f66080830184620006a7565b969550505050505056fe60806040523480156200001157600080fd5b5060405162000d4938038062000d49833981810160405281019062000037919062000404565b85600090805190602001906200004f92919062000117565b508460018190555083600290805190602001906200006f92919062000117565b5082600390805190602001906200008892919062000117565b5081600460006101000a81548173ffffffffffffffffffffffffffffffffffffffff021916908373ffffffffffffffffffffffffffffffffffffffff16021790555080600660006101000a81548173ffffffffffffffffffffffffffffffffffffffff021916908373ffffffffffffffffffffffffffffffffffffffff16021790555050505050505062000562565b82805462000125906200052c565b90600052602060002090601f01602090048101928262000149576000855562000195565b82601f106200016457805160ff191683800117855562000195565b8280016001018555821562000195579182015b828111156200019457825182559160200191906001019062000177565b5b509050620001a49190620001a8565b5090565b5b80821115620001c3576000816000905550600101620001a9565b5090565b6000604051905090565b600080fd5b600080fd5b600080fd5b600080fd5b6000601f19601f8301169050919050565b7f4e487b7100000000000000000000000000000000000000000000000000000000600052604160045260246000fd5b6200023082620001e5565b810181811067ffffffffffffffff82111715620002525762000251620001f6565b5b80604052505050565b600062000267620001c7565b905062000275828262000225565b919050565b600067ffffffffffffffff821115620002985762000297620001f6565b5b620002a382620001e5565b9050602081019050919050565b60005b83811015620002d0578082015181840152602081019050620002b3565b83811115620002e0576000848401525b50505050565b6000620002fd620002f7846200027a565b6200025b565b9050828152602081018484840111156200031c576200031b620001e0565b5b62000329848285620002b0565b509392505050565b600082601f830112620003495762000348620001db565b5b81516200035b848260208601620002e6565b91505092915050565b6000819050919050565b620003798162000364565b81146200038557600080fd5b50565b60008151905062000399816200036e565b92915050565b600073ffffffffffffffffffffffffffffffffffffffff82169050919050565b6000620003cc826200039f565b9050919050565b620003de81620003bf565b8114620003ea57600080fd5b50565b600081519050620003fe81620003d3565b92915050565b60008060008060008060c08789031215620004245762000423620001d1565b5b600087015167ffffffffffffffff811115620004455762000444620001d6565b5b6200045389828a0162000331565b96505060206200046689828a0162000388565b955050604087015167ffffffffffffffff8111156200048a5762000489620001d6565b5b6200049889828a0162000331565b945050606087015167ffffffffffffffff811115620004bc57620004bb620001d6565b5b620004ca89828a0162000331565b9350506080620004dd89828a01620003ed565b92505060a0620004f089828a01620003ed565b9150509295509295509295565b7f4e487b7100000000000000000000000000000000000000000000000000000000600052602260045260246000fd5b600060028204905060018216806200054557607f821691505b602082108114156200055c576200055b620004fd565b5b50919050565b6107d780620005726000396000f3fe60806040526004361061007b5760003560e01c80638da5cb5b1161004e5780638da5cb5b1461012c5780639632e72014610157578063ed88c68e14610182578063f3ccaac01461018c5761007b565b80631385a6f21461008057806346c922d1146100ab57806348b9ef40146100d65780634a79d50c14610101575b600080fd5b34801561008c57600080fd5b506100956101b7565b6040516100a29190610509565b60405180910390f35b3480156100b757600080fd5b506100c06101dd565b6040516100cd91906105bd565b60405180910390f35b3480156100e257600080fd5b506100eb61026b565b6040516100f891906105f8565b60405180910390f35b34801561010d57600080fd5b50610116610271565b60405161012391906105bd565b60405180910390f35b34801561013857600080fd5b506101416102ff565b60405161014e9190610634565b60405180910390f35b34801561016357600080fd5b5061016c610325565b60405161017991906105f8565b60405180910390f35b61018a61032b565b005b34801561019857600080fd5b506101a161043a565b6040516101ae91906105bd565b60405180910390f35b600660009054906101000a900473ffffffffffffffffffffffffffffffffffffffff1681565b600380546101ea9061067e565b80601f01602080910402602001604051908101604052809291908181526020018280546102169061067e565b80156102635780601f1061023857610100808354040283529160200191610263565b820191906000526020600020905b81548152906001019060200180831161024657829003601f168201915b505050505081565b60015481565b6000805461027e9061067e565b80601f01602080910402602001604051908101604052809291908181526020018280546102aa9061067e565b80156102f75780601f106102cc576101008083540402835291602001916102f7565b820191906000526020600020905b8154815290600101906020018083116102da57829003601f168201915b505050505081565b600460009054906101000a900473ffffffffffffffffffffffffffffffffffffffff1681565b60055481565b60055460015411610371576040517f08c379a0000000000000000000000000000000000000000000000000000000008152600401610368906106fc565b60405180910390fd5b600660009054906101000a900473ffffffffffffffffffffffffffffffffffffffff1673ffffffffffffffffffffffffffffffffffffffff166108fc349081150290604051600060405180830381858888f193505050501580156103d9573d6000803e3d6000fd5b5034600560008282546103ec919061074b565b9250508190555042343373ffffffffffffffffffffffffffffffffffffffff167fe6add99d06d9ad7fc456e746aa162eed6211c5002ef2dacdd67b8d2016822fba60405160405180910390a4565b600280546104479061067e565b80601f01602080910402602001604051908101604052809291908181526020018280546104739061067e565b80156104c05780601f10610495576101008083540402835291602001916104c0565b820191906000526020600020905b8154815290600101906020018083116104a357829003601f168201915b505050505081565b600073ffffffffffffffffffffffffffffffffffffffff82169050919050565b60006104f3826104c8565b9050919050565b610503816104e8565b82525050565b600060208201905061051e60008301846104fa565b92915050565b600081519050919050565b600082825260208201905092915050565b60005b8381101561055e578082015181840152602081019050610543565b8381111561056d576000848401525b50505050565b6000601f19601f8301169050919050565b600061058f82610524565b610599818561052f565b93506105a9818560208601610540565b6105b281610573565b840191505092915050565b600060208201905081810360008301526105d78184610584565b905092915050565b6000819050919050565b6105f2816105df565b82525050565b600060208201905061060d60008301846105e9565b92915050565b600061061e826104c8565b9050919050565b61062e81610613565b82525050565b60006020820190506106496000830184610625565b92915050565b7f4e487b7100000000000000000000000000000000000000000000000000000000600052602260045260246000fd5b6000600282049050600182168061069657607f821691505b602082108114156106aa576106a961064f565b5b50919050565b7f726571756972656420616d6f756e742066756c6c66696c6c6564000000000000600082015250565b60006106e6601a8361052f565b91506106f1826106b0565b602082019050919050565b60006020820190508181036000830152610715816106d9565b9050919050565b7f4e487b7100000000000000000000000000000000000000000000000000000000600052601160045260246000fd5b6000610756826105df565b9150610761836105df565b9250827fffffffffffffffffffffffffffffffffffffffffffffffffffffffffffffffff038211156107965761079561071c565b5b82820190509291505056fea2646970667358221220d811444c00e4212ba7ab1fc9f7fb88d221509abd417c204d6c1929abaa4431d764736f6c634300080a0033a2646970667358221220031821171536f0b4b0f3eadb1967ab52b80ce954ac440be6b5d12a1442120fc564736f6c634300080a0033",
          "opcodes": "PUSH1 0x80 PUSH1 0x40 MSTORE CALLVALUE DUP1 ISZERO PUSH2 0x10 JUMPI PUSH1 0x0 DUP1 REVERT JUMPDEST POP PUSH2 0x157F DUP1 PUSH2 0x20 PUSH1 0x0 CODECOPY PUSH1 0x0 RETURN INVALID PUSH1 0x80 PUSH1 0x40 MSTORE CALLVALUE DUP1 ISZERO PUSH3 0x11 JUMPI PUSH1 0x0 DUP1 REVERT JUMPDEST POP PUSH1 0x4 CALLDATASIZE LT PUSH3 0x3A JUMPI PUSH1 0x0 CALLDATALOAD PUSH1 0xE0 SHR DUP1 PUSH4 0x339D50A5 EQ PUSH3 0x3F JUMPI DUP1 PUSH4 0x489B2802 EQ PUSH3 0x75 JUMPI JUMPDEST PUSH1 0x0 DUP1 REVERT JUMPDEST PUSH3 0x5D PUSH1 0x4 DUP1 CALLDATASIZE SUB DUP2 ADD SWAP1 PUSH3 0x57 SWAP2 SWAP1 PUSH3 0x256 JUMP JUMPDEST PUSH3 0x95 JUMP JUMPDEST PUSH1 0x40 MLOAD PUSH3 0x6C SWAP2 SWAP1 PUSH3 0x2CD JUMP JUMPDEST PUSH1 0x40 MLOAD DUP1 SWAP2 SUB SWAP1 RETURN JUMPDEST PUSH3 0x93 PUSH1 0x4 DUP1 CALLDATASIZE SUB DUP2 ADD SWAP1 PUSH3 0x8D SWAP2 SWAP1 PUSH3 0x491 JUMP JUMPDEST PUSH3 0xD5 JUMP JUMPDEST STOP JUMPDEST PUSH1 0x0 DUP2 DUP2 SLOAD DUP2 LT PUSH3 0xA6 JUMPI PUSH1 0x0 DUP1 REVERT JUMPDEST SWAP1 PUSH1 0x0 MSTORE PUSH1 0x20 PUSH1 0x0 KECCAK256 ADD PUSH1 0x0 SWAP2 POP SLOAD SWAP1 PUSH2 0x100 EXP SWAP1 DIV PUSH20 0xFFFFFFFFFFFFFFFFFFFFFFFFFFFFFFFFFFFFFFFF AND DUP2 JUMP JUMPDEST PUSH1 0x0 DUP7 DUP7 DUP7 DUP6 CALLER DUP7 PUSH1 0x40 MLOAD PUSH3 0xEB SWAP1 PUSH3 0x1F9 JUMP JUMPDEST PUSH3 0xFC SWAP7 SWAP6 SWAP5 SWAP4 SWAP3 SWAP2 SWAP1 PUSH3 0x6B8 JUMP JUMPDEST PUSH1 0x40 MLOAD DUP1 SWAP2 SUB SWAP1 PUSH1 0x0 CREATE DUP1 ISZERO DUP1 ISZERO PUSH3 0x119 JUMPI RETURNDATASIZE PUSH1 0x0 DUP1 RETURNDATACOPY RETURNDATASIZE PUSH1 0x0 REVERT JUMPDEST POP SWAP1 POP PUSH1 0x0 DUP2 SWAP1 DUP1 PUSH1 0x1 DUP2 SLOAD ADD DUP1 DUP3 SSTORE DUP1 SWAP2 POP POP PUSH1 0x1 SWAP1 SUB SWAP1 PUSH1 0x0 MSTORE PUSH1 0x20 PUSH1 0x0 KECCAK256 ADD PUSH1 0x0 SWAP1 SWAP2 SWAP1 SWAP2 SWAP1 SWAP2 PUSH2 0x100 EXP DUP2 SLOAD DUP2 PUSH20 0xFFFFFFFFFFFFFFFFFFFFFFFFFFFFFFFFFFFFFFFF MUL NOT AND SWAP1 DUP4 PUSH20 0xFFFFFFFFFFFFFFFFFFFFFFFFFFFFFFFFFFFFFFFF AND MUL OR SWAP1 SSTORE POP DUP4 PUSH1 0x40 MLOAD PUSH3 0x18F SWAP2 SWAP1 PUSH3 0x77C JUMP JUMPDEST PUSH1 0x40 MLOAD DUP1 SWAP2 SUB SWAP1 KECCAK256 TIMESTAMP CALLER PUSH20 0xFFFFFFFFFFFFFFFFFFFFFFFFFFFFFFFFFFFFFFFF AND PUSH32 0xF58E825C056CBFFC41DF3CE227605DBD94E26554373D44A3537E4CD8ABA2C40B DUP11 DUP11 DUP7 DUP12 DUP10 PUSH1 0x40 MLOAD PUSH3 0x1E8 SWAP6 SWAP5 SWAP4 SWAP3 SWAP2 SWAP1 PUSH3 0x795 JUMP JUMPDEST PUSH1 0x40 MLOAD DUP1 SWAP2 SUB SWAP1 LOG4 POP POP POP POP POP POP POP JUMP JUMPDEST PUSH2 0xD49 DUP1 PUSH3 0x801 DUP4 CODECOPY ADD SWAP1 JUMP JUMPDEST PUSH1 0x0 PUSH1 0x40 MLOAD SWAP1 POP SWAP1 JUMP JUMPDEST PUSH1 0x0 DUP1 REVERT JUMPDEST PUSH1 0x0 DUP1 REVERT JUMPDEST PUSH1 0x0 DUP2 SWAP1 POP SWAP2 SWAP1 POP JUMP JUMPDEST PUSH3 0x230 DUP2 PUSH3 0x21B JUMP JUMPDEST DUP2 EQ PUSH3 0x23C JUMPI PUSH1 0x0 DUP1 REVERT JUMPDEST POP JUMP JUMPDEST PUSH1 0x0 DUP2 CALLDATALOAD SWAP1 POP PUSH3 0x250 DUP2 PUSH3 0x225 JUMP JUMPDEST SWAP3 SWAP2 POP POP JUMP JUMPDEST PUSH1 0x0 PUSH1 0x20 DUP3 DUP5 SUB SLT ISZERO PUSH3 0x26F JUMPI PUSH3 0x26E PUSH3 0x211 JUMP JUMPDEST JUMPDEST PUSH1 0x0 PUSH3 0x27F DUP5 DUP3 DUP6 ADD PUSH3 0x23F JUMP JUMPDEST SWAP2 POP POP SWAP3 SWAP2 POP POP JUMP JUMPDEST PUSH1 0x0 PUSH20 0xFFFFFFFFFFFFFFFFFFFFFFFFFFFFFFFFFFFFFFFF DUP3 AND SWAP1 POP SWAP2 SWAP1 POP JUMP JUMPDEST PUSH1 0x0 PUSH3 0x2B5 DUP3 PUSH3 0x288 JUMP JUMPDEST SWAP1 POP SWAP2 SWAP1 POP JUMP JUMPDEST PUSH3 0x2C7 DUP2 PUSH3 0x2A8 JUMP JUMPDEST DUP3 MSTORE POP POP JUMP JUMPDEST PUSH1 0x0 PUSH1 0x20 DUP3 ADD SWAP1 POP PUSH3 0x2E4 PUSH1 0x0 DUP4 ADD DUP5 PUSH3 0x2BC JUMP JUMPDEST SWAP3 SWAP2 POP POP JUMP JUMPDEST PUSH1 0x0 DUP1 REVERT JUMPDEST PUSH1 0x0 DUP1 REVERT JUMPDEST PUSH1 0x0 PUSH1 0x1F NOT PUSH1 0x1F DUP4 ADD AND SWAP1 POP SWAP2 SWAP1 POP JUMP JUMPDEST PUSH32 0x4E487B7100000000000000000000000000000000000000000000000000000000 PUSH1 0x0 MSTORE PUSH1 0x41 PUSH1 0x4 MSTORE PUSH1 0x24 PUSH1 0x0 REVERT JUMPDEST PUSH3 0x33F DUP3 PUSH3 0x2F4 JUMP JUMPDEST DUP2 ADD DUP2 DUP2 LT PUSH8 0xFFFFFFFFFFFFFFFF DUP3 GT OR ISZERO PUSH3 0x361 JUMPI PUSH3 0x360 PUSH3 0x305 JUMP JUMPDEST JUMPDEST DUP1 PUSH1 0x40 MSTORE POP POP POP JUMP JUMPDEST PUSH1 0x0 PUSH3 0x376 PUSH3 0x207 JUMP JUMPDEST SWAP1 POP PUSH3 0x384 DUP3 DUP3 PUSH3 0x334 JUMP JUMPDEST SWAP2 SWAP1 POP JUMP JUMPDEST PUSH1 0x0 PUSH8 0xFFFFFFFFFFFFFFFF DUP3 GT ISZERO PUSH3 0x3A7 JUMPI PUSH3 0x3A6 PUSH3 0x305 JUMP JUMPDEST JUMPDEST PUSH3 0x3B2 DUP3 PUSH3 0x2F4 JUMP JUMPDEST SWAP1 POP PUSH1 0x20 DUP2 ADD SWAP1 POP SWAP2 SWAP1 POP JUMP JUMPDEST DUP3 DUP2 DUP4 CALLDATACOPY PUSH1 0x0 DUP4 DUP4 ADD MSTORE POP POP POP JUMP JUMPDEST PUSH1 0x0 PUSH3 0x3E5 PUSH3 0x3DF DUP5 PUSH3 0x389 JUMP JUMPDEST PUSH3 0x36A JUMP JUMPDEST SWAP1 POP DUP3 DUP2 MSTORE PUSH1 0x20 DUP2 ADD DUP5 DUP5 DUP5 ADD GT ISZERO PUSH3 0x404 JUMPI PUSH3 0x403 PUSH3 0x2EF JUMP JUMPDEST JUMPDEST PUSH3 0x411 DUP5 DUP3 DUP6 PUSH3 0x3BF JUMP JUMPDEST POP SWAP4 SWAP3 POP POP POP JUMP JUMPDEST PUSH1 0x0 DUP3 PUSH1 0x1F DUP4 ADD SLT PUSH3 0x431 JUMPI PUSH3 0x430 PUSH3 0x2EA JUMP JUMPDEST JUMPDEST DUP2 CALLDATALOAD PUSH3 0x443 DUP5 DUP3 PUSH1 0x20 DUP7 ADD PUSH3 0x3CE JUMP JUMPDEST SWAP2 POP POP SWAP3 SWAP2 POP POP JUMP JUMPDEST PUSH1 0x0 PUSH3 0x459 DUP3 PUSH3 0x288 JUMP JUMPDEST SWAP1 POP SWAP2 SWAP1 POP JUMP JUMPDEST PUSH3 0x46B DUP2 PUSH3 0x44C JUMP JUMPDEST DUP2 EQ PUSH3 0x477 JUMPI PUSH1 0x0 DUP1 REVERT JUMPDEST POP JUMP JUMPDEST PUSH1 0x0 DUP2 CALLDATALOAD SWAP1 POP PUSH3 0x48B DUP2 PUSH3 0x460 JUMP JUMPDEST SWAP3 SWAP2 POP POP JUMP JUMPDEST PUSH1 0x0 DUP1 PUSH1 0x0 DUP1 PUSH1 0x0 DUP1 PUSH1 0xC0 DUP8 DUP10 SUB SLT ISZERO PUSH3 0x4B1 JUMPI PUSH3 0x4B0 PUSH3 0x211 JUMP JUMPDEST JUMPDEST PUSH1 0x0 DUP8 ADD CALLDATALOAD PUSH8 0xFFFFFFFFFFFFFFFF DUP2 GT ISZERO PUSH3 0x4D2 JUMPI PUSH3 0x4D1 PUSH3 0x216 JUMP JUMPDEST JUMPDEST PUSH3 0x4E0 DUP10 DUP3 DUP11 ADD PUSH3 0x419 JUMP JUMPDEST SWAP7 POP POP PUSH1 0x20 PUSH3 0x4F3 DUP10 DUP3 DUP11 ADD PUSH3 0x23F JUMP JUMPDEST SWAP6 POP POP PUSH1 0x40 DUP8 ADD CALLDATALOAD PUSH8 0xFFFFFFFFFFFFFFFF DUP2 GT ISZERO PUSH3 0x517 JUMPI PUSH3 0x516 PUSH3 0x216 JUMP JUMPDEST JUMPDEST PUSH3 0x525 DUP10 DUP3 DUP11 ADD PUSH3 0x419 JUMP JUMPDEST SWAP5 POP POP PUSH1 0x60 DUP8 ADD CALLDATALOAD PUSH8 0xFFFFFFFFFFFFFFFF DUP2 GT ISZERO PUSH3 0x549 JUMPI PUSH3 0x548 PUSH3 0x216 JUMP JUMPDEST JUMPDEST PUSH3 0x557 DUP10 DUP3 DUP11 ADD PUSH3 0x419 JUMP JUMPDEST SWAP4 POP POP PUSH1 0x80 DUP8 ADD CALLDATALOAD PUSH8 0xFFFFFFFFFFFFFFFF DUP2 GT ISZERO PUSH3 0x57B JUMPI PUSH3 0x57A PUSH3 0x216 JUMP JUMPDEST JUMPDEST PUSH3 0x589 DUP10 DUP3 DUP11 ADD PUSH3 0x419 JUMP JUMPDEST SWAP3 POP POP PUSH1 0xA0 PUSH3 0x59C DUP10 DUP3 DUP11 ADD PUSH3 0x47A JUMP JUMPDEST SWAP2 POP POP SWAP3 SWAP6 POP SWAP3 SWAP6 POP SWAP3 SWAP6 JUMP JUMPDEST PUSH1 0x0 DUP2 MLOAD SWAP1 POP SWAP2 SWAP1 POP JUMP JUMPDEST PUSH1 0x0 DUP3 DUP3 MSTORE PUSH1 0x20 DUP3 ADD SWAP1 POP SWAP3 SWAP2 POP POP JUMP JUMPDEST PUSH1 0x0 JUMPDEST DUP4 DUP2 LT ISZERO PUSH3 0x5E5 JUMPI DUP1 DUP3 ADD MLOAD DUP2 DUP5 ADD MSTORE PUSH1 0x20 DUP2 ADD SWAP1 POP PUSH3 0x5C8 JUMP JUMPDEST DUP4 DUP2 GT ISZERO PUSH3 0x5F5 JUMPI PUSH1 0x0 DUP5 DUP5 ADD MSTORE JUMPDEST POP POP POP POP JUMP JUMPDEST PUSH1 0x0 PUSH3 0x608 DUP3 PUSH3 0x5A9 JUMP JUMPDEST PUSH3 0x614 DUP2 DUP6 PUSH3 0x5B4 JUMP JUMPDEST SWAP4 POP PUSH3 0x626 DUP2 DUP6 PUSH1 0x20 DUP7 ADD PUSH3 0x5C5 JUMP JUMPDEST PUSH3 0x631 DUP2 PUSH3 0x2F4 JUMP JUMPDEST DUP5 ADD SWAP2 POP POP SWAP3 SWAP2 POP POP JUMP JUMPDEST PUSH3 0x647 DUP2 PUSH3 0x21B JUMP JUMPDEST DUP3 MSTORE POP POP JUMP JUMPDEST PUSH1 0x0 DUP2 SWAP1 POP SWAP2 SWAP1 POP JUMP JUMPDEST PUSH1 0x0 PUSH3 0x678 PUSH3 0x672 PUSH3 0x66C DUP5 PUSH3 0x288 JUMP JUMPDEST PUSH3 0x64D JUMP JUMPDEST PUSH3 0x288 JUMP JUMPDEST SWAP1 POP SWAP2 SWAP1 POP JUMP JUMPDEST PUSH1 0x0 PUSH3 0x68C DUP3 PUSH3 0x657 JUMP JUMPDEST SWAP1 POP SWAP2 SWAP1 POP JUMP JUMPDEST PUSH1 0x0 PUSH3 0x6A0 DUP3 PUSH3 0x67F JUMP JUMPDEST SWAP1 POP SWAP2 SWAP1 POP JUMP JUMPDEST PUSH3 0x6B2 DUP2 PUSH3 0x693 JUMP JUMPDEST DUP3 MSTORE POP POP JUMP JUMPDEST PUSH1 0x0 PUSH1 0xC0 DUP3 ADD SWAP1 POP DUP2 DUP2 SUB PUSH1 0x0 DUP4 ADD MSTORE PUSH3 0x6D4 DUP2 DUP10 PUSH3 0x5FB JUMP JUMPDEST SWAP1 POP PUSH3 0x6E5 PUSH1 0x20 DUP4 ADD DUP9 PUSH3 0x63C JUMP JUMPDEST DUP2 DUP2 SUB PUSH1 0x40 DUP4 ADD MSTORE PUSH3 0x6F9 DUP2 DUP8 PUSH3 0x5FB JUMP JUMPDEST SWAP1 POP DUP2 DUP2 SUB PUSH1 0x60 DUP4 ADD MSTORE PUSH3 0x70F DUP2 DUP7 PUSH3 0x5FB JUMP JUMPDEST SWAP1 POP PUSH3 0x720 PUSH1 0x80 DUP4 ADD DUP6 PUSH3 0x2BC JUMP JUMPDEST PUSH3 0x72F PUSH1 0xA0 DUP4 ADD DUP5 PUSH3 0x6A7 JUMP JUMPDEST SWAP8 SWAP7 POP POP POP POP POP POP POP JUMP JUMPDEST PUSH1 0x0 DUP2 SWAP1 POP SWAP3 SWAP2 POP POP JUMP JUMPDEST PUSH1 0x0 PUSH3 0x752 DUP3 PUSH3 0x5A9 JUMP JUMPDEST PUSH3 0x75E DUP2 DUP6 PUSH3 0x73A JUMP JUMPDEST SWAP4 POP PUSH3 0x770 DUP2 DUP6 PUSH1 0x20 DUP7 ADD PUSH3 0x5C5 JUMP JUMPDEST DUP1 DUP5 ADD SWAP2 POP POP SWAP3 SWAP2 POP POP JUMP JUMPDEST PUSH1 0x0 PUSH3 0x78A DUP3 DUP5 PUSH3 0x745 JUMP JUMPDEST SWAP2 POP DUP2 SWAP1 POP SWAP3 SWAP2 POP POP JUMP JUMPDEST PUSH1 0x0 PUSH1 0xA0 DUP3 ADD SWAP1 POP DUP2 DUP2 SUB PUSH1 0x0 DUP4 ADD MSTORE PUSH3 0x7B1 DUP2 DUP9 PUSH3 0x5FB JUMP JUMPDEST SWAP1 POP PUSH3 0x7C2 PUSH1 0x20 DUP4 ADD DUP8 PUSH3 0x63C JUMP JUMPDEST PUSH3 0x7D1 PUSH1 0x40 DUP4 ADD DUP7 PUSH3 0x2BC JUMP JUMPDEST DUP2 DUP2 SUB PUSH1 0x60 DUP4 ADD MSTORE PUSH3 0x7E5 DUP2 DUP6 PUSH3 0x5FB JUMP JUMPDEST SWAP1 POP PUSH3 0x7F6 PUSH1 0x80 DUP4 ADD DUP5 PUSH3 0x6A7 JUMP JUMPDEST SWAP7 SWAP6 POP POP POP POP POP POP JUMP INVALID PUSH1 0x80 PUSH1 0x40 MSTORE CALLVALUE DUP1 ISZERO PUSH3 0x11 JUMPI PUSH1 0x0 DUP1 REVERT JUMPDEST POP PUSH1 0x40 MLOAD PUSH3 0xD49 CODESIZE SUB DUP1 PUSH3 0xD49 DUP4 CODECOPY DUP2 DUP2 ADD PUSH1 0x40 MSTORE DUP2 ADD SWAP1 PUSH3 0x37 SWAP2 SWAP1 PUSH3 0x404 JUMP JUMPDEST DUP6 PUSH1 0x0 SWAP1 DUP1 MLOAD SWAP1 PUSH1 0x20 ADD SWAP1 PUSH3 0x4F SWAP3 SWAP2 SWAP1 PUSH3 0x117 JUMP JUMPDEST POP DUP5 PUSH1 0x1 DUP2 SWAP1 SSTORE POP DUP4 PUSH1 0x2 SWAP1 DUP1 MLOAD SWAP1 PUSH1 0x20 ADD SWAP1 PUSH3 0x6F SWAP3 SWAP2 SWAP1 PUSH3 0x117 JUMP JUMPDEST POP DUP3 PUSH1 0x3 SWAP1 DUP1 MLOAD SWAP1 PUSH1 0x20 ADD SWAP1 PUSH3 0x88 SWAP3 SWAP2 SWAP1 PUSH3 0x117 JUMP JUMPDEST POP DUP2 PUSH1 0x4 PUSH1 0x0 PUSH2 0x100 EXP DUP2 SLOAD DUP2 PUSH20 0xFFFFFFFFFFFFFFFFFFFFFFFFFFFFFFFFFFFFFFFF MUL NOT AND SWAP1 DUP4 PUSH20 0xFFFFFFFFFFFFFFFFFFFFFFFFFFFFFFFFFFFFFFFF AND MUL OR SWAP1 SSTORE POP DUP1 PUSH1 0x6 PUSH1 0x0 PUSH2 0x100 EXP DUP2 SLOAD DUP2 PUSH20 0xFFFFFFFFFFFFFFFFFFFFFFFFFFFFFFFFFFFFFFFF MUL NOT AND SWAP1 DUP4 PUSH20 0xFFFFFFFFFFFFFFFFFFFFFFFFFFFFFFFFFFFFFFFF AND MUL OR SWAP1 SSTORE POP POP POP POP POP POP POP PUSH3 0x562 JUMP JUMPDEST DUP3 DUP1 SLOAD PUSH3 0x125 SWAP1 PUSH3 0x52C JUMP JUMPDEST SWAP1 PUSH1 0x0 MSTORE PUSH1 0x20 PUSH1 0x0 KECCAK256 SWAP1 PUSH1 0x1F ADD PUSH1 0x20 SWAP1 DIV DUP2 ADD SWAP3 DUP3 PUSH3 0x149 JUMPI PUSH1 0x0 DUP6 SSTORE PUSH3 0x195 JUMP JUMPDEST DUP3 PUSH1 0x1F LT PUSH3 0x164 JUMPI DUP1 MLOAD PUSH1 0xFF NOT AND DUP4 DUP1 ADD OR DUP6 SSTORE PUSH3 0x195 JUMP JUMPDEST DUP3 DUP1 ADD PUSH1 0x1 ADD DUP6 SSTORE DUP3 ISZERO PUSH3 0x195 JUMPI SWAP2 DUP3 ADD JUMPDEST DUP3 DUP2 GT ISZERO PUSH3 0x194 JUMPI DUP3 MLOAD DUP3 SSTORE SWAP2 PUSH1 0x20 ADD SWAP2 SWAP1 PUSH1 0x1 ADD SWAP1 PUSH3 0x177 JUMP JUMPDEST JUMPDEST POP SWAP1 POP PUSH3 0x1A4 SWAP2 SWAP1 PUSH3 0x1A8 JUMP JUMPDEST POP SWAP1 JUMP JUMPDEST JUMPDEST DUP1 DUP3 GT ISZERO PUSH3 0x1C3 JUMPI PUSH1 0x0 DUP2 PUSH1 0x0 SWAP1 SSTORE POP PUSH1 0x1 ADD PUSH3 0x1A9 JUMP JUMPDEST POP SWAP1 JUMP JUMPDEST PUSH1 0x0 PUSH1 0x40 MLOAD SWAP1 POP SWAP1 JUMP JUMPDEST PUSH1 0x0 DUP1 REVERT JUMPDEST PUSH1 0x0 DUP1 REVERT JUMPDEST PUSH1 0x0 DUP1 REVERT JUMPDEST PUSH1 0x0 DUP1 REVERT JUMPDEST PUSH1 0x0 PUSH1 0x1F NOT PUSH1 0x1F DUP4 ADD AND SWAP1 POP SWAP2 SWAP1 POP JUMP JUMPDEST PUSH32 0x4E487B7100000000000000000000000000000000000000000000000000000000 PUSH1 0x0 MSTORE PUSH1 0x41 PUSH1 0x4 MSTORE PUSH1 0x24 PUSH1 0x0 REVERT JUMPDEST PUSH3 0x230 DUP3 PUSH3 0x1E5 JUMP JUMPDEST DUP2 ADD DUP2 DUP2 LT PUSH8 0xFFFFFFFFFFFFFFFF DUP3 GT OR ISZERO PUSH3 0x252 JUMPI PUSH3 0x251 PUSH3 0x1F6 JUMP JUMPDEST JUMPDEST DUP1 PUSH1 0x40 MSTORE POP POP POP JUMP JUMPDEST PUSH1 0x0 PUSH3 0x267 PUSH3 0x1C7 JUMP JUMPDEST SWAP1 POP PUSH3 0x275 DUP3 DUP3 PUSH3 0x225 JUMP JUMPDEST SWAP2 SWAP1 POP JUMP JUMPDEST PUSH1 0x0 PUSH8 0xFFFFFFFFFFFFFFFF DUP3 GT ISZERO PUSH3 0x298 JUMPI PUSH3 0x297 PUSH3 0x1F6 JUMP JUMPDEST JUMPDEST PUSH3 0x2A3 DUP3 PUSH3 0x1E5 JUMP JUMPDEST SWAP1 POP PUSH1 0x20 DUP2 ADD SWAP1 POP SWAP2 SWAP1 POP JUMP JUMPDEST PUSH1 0x0 JUMPDEST DUP4 DUP2 LT ISZERO PUSH3 0x2D0 JUMPI DUP1 DUP3 ADD MLOAD DUP2 DUP5 ADD MSTORE PUSH1 0x20 DUP2 ADD SWAP1 POP PUSH3 0x2B3 JUMP JUMPDEST DUP4 DUP2 GT ISZERO PUSH3 0x2E0 JUMPI PUSH1 0x0 DUP5 DUP5 ADD MSTORE JUMPDEST POP POP POP POP JUMP JUMPDEST PUSH1 0x0 PUSH3 0x2FD PUSH3 0x2F7 DUP5 PUSH3 0x27A JUMP JUMPDEST PUSH3 0x25B JUMP JUMPDEST SWAP1 POP DUP3 DUP2 MSTORE PUSH1 0x20 DUP2 ADD DUP5 DUP5 DUP5 ADD GT ISZERO PUSH3 0x31C JUMPI PUSH3 0x31B PUSH3 0x1E0 JUMP JUMPDEST JUMPDEST PUSH3 0x329 DUP5 DUP3 DUP6 PUSH3 0x2B0 JUMP JUMPDEST POP SWAP4 SWAP3 POP POP POP JUMP JUMPDEST PUSH1 0x0 DUP3 PUSH1 0x1F DUP4 ADD SLT PUSH3 0x349 JUMPI PUSH3 0x348 PUSH3 0x1DB JUMP JUMPDEST JUMPDEST DUP2 MLOAD PUSH3 0x35B DUP5 DUP3 PUSH1 0x20 DUP7 ADD PUSH3 0x2E6 JUMP JUMPDEST SWAP2 POP POP SWAP3 SWAP2 POP POP JUMP JUMPDEST PUSH1 0x0 DUP2 SWAP1 POP SWAP2 SWAP1 POP JUMP JUMPDEST PUSH3 0x379 DUP2 PUSH3 0x364 JUMP JUMPDEST DUP2 EQ PUSH3 0x385 JUMPI PUSH1 0x0 DUP1 REVERT JUMPDEST POP JUMP JUMPDEST PUSH1 0x0 DUP2 MLOAD SWAP1 POP PUSH3 0x399 DUP2 PUSH3 0x36E JUMP JUMPDEST SWAP3 SWAP2 POP POP JUMP JUMPDEST PUSH1 0x0 PUSH20 0xFFFFFFFFFFFFFFFFFFFFFFFFFFFFFFFFFFFFFFFF DUP3 AND SWAP1 POP SWAP2 SWAP1 POP JUMP JUMPDEST PUSH1 0x0 PUSH3 0x3CC DUP3 PUSH3 0x39F JUMP JUMPDEST SWAP1 POP SWAP2 SWAP1 POP JUMP JUMPDEST PUSH3 0x3DE DUP2 PUSH3 0x3BF JUMP JUMPDEST DUP2 EQ PUSH3 0x3EA JUMPI PUSH1 0x0 DUP1 REVERT JUMPDEST POP JUMP JUMPDEST PUSH1 0x0 DUP2 MLOAD SWAP1 POP PUSH3 0x3FE DUP2 PUSH3 0x3D3 JUMP JUMPDEST SWAP3 SWAP2 POP POP JUMP JUMPDEST PUSH1 0x0 DUP1 PUSH1 0x0 DUP1 PUSH1 0x0 DUP1 PUSH1 0xC0 DUP8 DUP10 SUB SLT ISZERO PUSH3 0x424 JUMPI PUSH3 0x423 PUSH3 0x1D1 JUMP JUMPDEST JUMPDEST PUSH1 0x0 DUP8 ADD MLOAD PUSH8 0xFFFFFFFFFFFFFFFF DUP2 GT ISZERO PUSH3 0x445 JUMPI PUSH3 0x444 PUSH3 0x1D6 JUMP JUMPDEST JUMPDEST PUSH3 0x453 DUP10 DUP3 DUP11 ADD PUSH3 0x331 JUMP JUMPDEST SWAP7 POP POP PUSH1 0x20 PUSH3 0x466 DUP10 DUP3 DUP11 ADD PUSH3 0x388 JUMP JUMPDEST SWAP6 POP POP PUSH1 0x40 DUP8 ADD MLOAD PUSH8 0xFFFFFFFFFFFFFFFF DUP2 GT ISZERO PUSH3 0x48A JUMPI PUSH3 0x489 PUSH3 0x1D6 JUMP JUMPDEST JUMPDEST PUSH3 0x498 DUP10 DUP3 DUP11 ADD PUSH3 0x331 JUMP JUMPDEST SWAP5 POP POP PUSH1 0x60 DUP8 ADD MLOAD PUSH8 0xFFFFFFFFFFFFFFFF DUP2 GT ISZERO PUSH3 0x4BC JUMPI PUSH3 0x4BB PUSH3 0x1D6 JUMP JUMPDEST JUMPDEST PUSH3 0x4CA DUP10 DUP3 DUP11 ADD PUSH3 0x331 JUMP JUMPDEST SWAP4 POP POP PUSH1 0x80 PUSH3 0x4DD DUP10 DUP3 DUP11 ADD PUSH3 0x3ED JUMP JUMPDEST SWAP3 POP POP PUSH1 0xA0 PUSH3 0x4F0 DUP10 DUP3 DUP11 ADD PUSH3 0x3ED JUMP JUMPDEST SWAP2 POP POP SWAP3 SWAP6 POP SWAP3 SWAP6 POP SWAP3 SWAP6 JUMP JUMPDEST PUSH32 0x4E487B7100000000000000000000000000000000000000000000000000000000 PUSH1 0x0 MSTORE PUSH1 0x22 PUSH1 0x4 MSTORE PUSH1 0x24 PUSH1 0x0 REVERT JUMPDEST PUSH1 0x0 PUSH1 0x2 DUP3 DIV SWAP1 POP PUSH1 0x1 DUP3 AND DUP1 PUSH3 0x545 JUMPI PUSH1 0x7F DUP3 AND SWAP2 POP JUMPDEST PUSH1 0x20 DUP3 LT DUP2 EQ ISZERO PUSH3 0x55C JUMPI PUSH3 0x55B PUSH3 0x4FD JUMP JUMPDEST JUMPDEST POP SWAP2 SWAP1 POP JUMP JUMPDEST PUSH2 0x7D7 DUP1 PUSH3 0x572 PUSH1 0x0 CODECOPY PUSH1 0x0 RETURN INVALID PUSH1 0x80 PUSH1 0x40 MSTORE PUSH1 0x4 CALLDATASIZE LT PUSH2 0x7B JUMPI PUSH1 0x0 CALLDATALOAD PUSH1 0xE0 SHR DUP1 PUSH4 0x8DA5CB5B GT PUSH2 0x4E JUMPI DUP1 PUSH4 0x8DA5CB5B EQ PUSH2 0x12C JUMPI DUP1 PUSH4 0x9632E720 EQ PUSH2 0x157 JUMPI DUP1 PUSH4 0xED88C68E EQ PUSH2 0x182 JUMPI DUP1 PUSH4 0xF3CCAAC0 EQ PUSH2 0x18C JUMPI PUSH2 0x7B JUMP JUMPDEST DUP1 PUSH4 0x1385A6F2 EQ PUSH2 0x80 JUMPI DUP1 PUSH4 0x46C922D1 EQ PUSH2 0xAB JUMPI DUP1 PUSH4 0x48B9EF40 EQ PUSH2 0xD6 JUMPI DUP1 PUSH4 0x4A79D50C EQ PUSH2 0x101 JUMPI JUMPDEST PUSH1 0x0 DUP1 REVERT JUMPDEST CALLVALUE DUP1 ISZERO PUSH2 0x8C JUMPI PUSH1 0x0 DUP1 REVERT JUMPDEST POP PUSH2 0x95 PUSH2 0x1B7 JUMP JUMPDEST PUSH1 0x40 MLOAD PUSH2 0xA2 SWAP2 SWAP1 PUSH2 0x509 JUMP JUMPDEST PUSH1 0x40 MLOAD DUP1 SWAP2 SUB SWAP1 RETURN JUMPDEST CALLVALUE DUP1 ISZERO PUSH2 0xB7 JUMPI PUSH1 0x0 DUP1 REVERT JUMPDEST POP PUSH2 0xC0 PUSH2 0x1DD JUMP JUMPDEST PUSH1 0x40 MLOAD PUSH2 0xCD SWAP2 SWAP1 PUSH2 0x5BD JUMP JUMPDEST PUSH1 0x40 MLOAD DUP1 SWAP2 SUB SWAP1 RETURN JUMPDEST CALLVALUE DUP1 ISZERO PUSH2 0xE2 JUMPI PUSH1 0x0 DUP1 REVERT JUMPDEST POP PUSH2 0xEB PUSH2 0x26B JUMP JUMPDEST PUSH1 0x40 MLOAD PUSH2 0xF8 SWAP2 SWAP1 PUSH2 0x5F8 JUMP JUMPDEST PUSH1 0x40 MLOAD DUP1 SWAP2 SUB SWAP1 RETURN JUMPDEST CALLVALUE DUP1 ISZERO PUSH2 0x10D JUMPI PUSH1 0x0 DUP1 REVERT JUMPDEST POP PUSH2 0x116 PUSH2 0x271 JUMP JUMPDEST PUSH1 0x40 MLOAD PUSH2 0x123 SWAP2 SWAP1 PUSH2 0x5BD JUMP JUMPDEST PUSH1 0x40 MLOAD DUP1 SWAP2 SUB SWAP1 RETURN JUMPDEST CALLVALUE DUP1 ISZERO PUSH2 0x138 JUMPI PUSH1 0x0 DUP1 REVERT JUMPDEST POP PUSH2 0x141 PUSH2 0x2FF JUMP JUMPDEST PUSH1 0x40 MLOAD PUSH2 0x14E SWAP2 SWAP1 PUSH2 0x634 JUMP JUMPDEST PUSH1 0x40 MLOAD DUP1 SWAP2 SUB SWAP1 RETURN JUMPDEST CALLVALUE DUP1 ISZERO PUSH2 0x163 JUMPI PUSH1 0x0 DUP1 REVERT JUMPDEST POP PUSH2 0x16C PUSH2 0x325 JUMP JUMPDEST PUSH1 0x40 MLOAD PUSH2 0x179 SWAP2 SWAP1 PUSH2 0x5F8 JUMP JUMPDEST PUSH1 0x40 MLOAD DUP1 SWAP2 SUB SWAP1 RETURN JUMPDEST PUSH2 0x18A PUSH2 0x32B JUMP JUMPDEST STOP JUMPDEST CALLVALUE DUP1 ISZERO PUSH2 0x198 JUMPI PUSH1 0x0 DUP1 REVERT JUMPDEST POP PUSH2 0x1A1 PUSH2 0x43A JUMP JUMPDEST PUSH1 0x40 MLOAD PUSH2 0x1AE SWAP2 SWAP1 PUSH2 0x5BD JUMP JUMPDEST PUSH1 0x40 MLOAD DUP1 SWAP2 SUB SWAP1 RETURN JUMPDEST PUSH1 0x6 PUSH1 0x0 SWAP1 SLOAD SWAP1 PUSH2 0x100 EXP SWAP1 DIV PUSH20 0xFFFFFFFFFFFFFFFFFFFFFFFFFFFFFFFFFFFFFFFF AND DUP2 JUMP JUMPDEST PUSH1 0x3 DUP1 SLOAD PUSH2 0x1EA SWAP1 PUSH2 0x67E JUMP JUMPDEST DUP1 PUSH1 0x1F ADD PUSH1 0x20 DUP1 SWAP2 DIV MUL PUSH1 0x20 ADD PUSH1 0x40 MLOAD SWAP1 DUP2 ADD PUSH1 0x40 MSTORE DUP1 SWAP3 SWAP2 SWAP1 DUP2 DUP2 MSTORE PUSH1 0x20 ADD DUP3 DUP1 SLOAD PUSH2 0x216 SWAP1 PUSH2 0x67E JUMP JUMPDEST DUP1 ISZERO PUSH2 0x263 JUMPI DUP1 PUSH1 0x1F LT PUSH2 0x238 JUMPI PUSH2 0x100 DUP1 DUP4 SLOAD DIV MUL DUP4 MSTORE SWAP2 PUSH1 0x20 ADD SWAP2 PUSH2 0x263 JUMP JUMPDEST DUP3 ADD SWAP2 SWAP1 PUSH1 0x0 MSTORE PUSH1 0x20 PUSH1 0x0 KECCAK256 SWAP1 JUMPDEST DUP2 SLOAD DUP2 MSTORE SWAP1 PUSH1 0x1 ADD SWAP1 PUSH1 0x20 ADD DUP1 DUP4 GT PUSH2 0x246 JUMPI DUP3 SWAP1 SUB PUSH1 0x1F AND DUP3 ADD SWAP2 JUMPDEST POP POP POP POP POP DUP2 JUMP JUMPDEST PUSH1 0x1 SLOAD DUP2 JUMP JUMPDEST PUSH1 0x0 DUP1 SLOAD PUSH2 0x27E SWAP1 PUSH2 0x67E JUMP JUMPDEST DUP1 PUSH1 0x1F ADD PUSH1 0x20 DUP1 SWAP2 DIV MUL PUSH1 0x20 ADD PUSH1 0x40 MLOAD SWAP1 DUP2 ADD PUSH1 0x40 MSTORE DUP1 SWAP3 SWAP2 SWAP1 DUP2 DUP2 MSTORE PUSH1 0x20 ADD DUP3 DUP1 SLOAD PUSH2 0x2AA SWAP1 PUSH2 0x67E JUMP JUMPDEST DUP1 ISZERO PUSH2 0x2F7 JUMPI DUP1 PUSH1 0x1F LT PUSH2 0x2CC JUMPI PUSH2 0x100 DUP1 DUP4 SLOAD DIV MUL DUP4 MSTORE SWAP2 PUSH1 0x20 ADD SWAP2 PUSH2 0x2F7 JUMP JUMPDEST DUP3 ADD SWAP2 SWAP1 PUSH1 0x0 MSTORE PUSH1 0x20 PUSH1 0x0 KECCAK256 SWAP1 JUMPDEST DUP2 SLOAD DUP2 MSTORE SWAP1 PUSH1 0x1 ADD SWAP1 PUSH1 0x20 ADD DUP1 DUP4 GT PUSH2 0x2DA JUMPI DUP3 SWAP1 SUB PUSH1 0x1F AND DUP3 ADD SWAP2 JUMPDEST POP POP POP POP POP DUP2 JUMP JUMPDEST PUSH1 0x4 PUSH1 0x0 SWAP1 SLOAD SWAP1 PUSH2 0x100 EXP SWAP1 DIV PUSH20 0xFFFFFFFFFFFFFFFFFFFFFFFFFFFFFFFFFFFFFFFF AND DUP2 JUMP JUMPDEST PUSH1 0x5 SLOAD DUP2 JUMP JUMPDEST PUSH1 0x5 SLOAD PUSH1 0x1 SLOAD GT PUSH2 0x371 JUMPI PUSH1 0x40 MLOAD PUSH32 0x8C379A000000000000000000000000000000000000000000000000000000000 DUP2 MSTORE PUSH1 0x4 ADD PUSH2 0x368 SWAP1 PUSH2 0x6FC JUMP JUMPDEST PUSH1 0x40 MLOAD DUP1 SWAP2 SUB SWAP1 REVERT JUMPDEST PUSH1 0x6 PUSH1 0x0 SWAP1 SLOAD SWAP1 PUSH2 0x100 EXP SWAP1 DIV PUSH20 0xFFFFFFFFFFFFFFFFFFFFFFFFFFFFFFFFFFFFFFFF AND PUSH20 0xFFFFFFFFFFFFFFFFFFFFFFFFFFFFFFFFFFFFFFFF AND PUSH2 0x8FC CALLVALUE SWAP1 DUP2 ISZERO MUL SWAP1 PUSH1 0x40 MLOAD PUSH1 0x0 PUSH1 0x40 MLOAD DUP1 DUP4 SUB DUP2 DUP6 DUP9 DUP9 CALL SWAP4 POP POP POP POP ISZERO DUP1 ISZERO PUSH2 0x3D9 JUMPI RETURNDATASIZE PUSH1 0x0 DUP1 RETURNDATACOPY RETURNDATASIZE PUSH1 0x0 REVERT JUMPDEST POP CALLVALUE PUSH1 0x5 PUSH1 0x0 DUP3 DUP3 SLOAD PUSH2 0x3EC SWAP2 SWAP1 PUSH2 0x74B JUMP JUMPDEST SWAP3 POP POP DUP2 SWAP1 SSTORE POP TIMESTAMP CALLVALUE CALLER PUSH20 0xFFFFFFFFFFFFFFFFFFFFFFFFFFFFFFFFFFFFFFFF AND PUSH32 0xE6ADD99D06D9AD7FC456E746AA162EED6211C5002EF2DACDD67B8D2016822FBA PUSH1 0x40 MLOAD PUSH1 0x40 MLOAD DUP1 SWAP2 SUB SWAP1 LOG4 JUMP JUMPDEST PUSH1 0x2 DUP1 SLOAD PUSH2 0x447 SWAP1 PUSH2 0x67E JUMP JUMPDEST DUP1 PUSH1 0x1F ADD PUSH1 0x20 DUP1 SWAP2 DIV MUL PUSH1 0x20 ADD PUSH1 0x40 MLOAD SWAP1 DUP2 ADD PUSH1 0x40 MSTORE DUP1 SWAP3 SWAP2 SWAP1 DUP2 DUP2 MSTORE PUSH1 0x20 ADD DUP3 DUP1 SLOAD PUSH2 0x473 SWAP1 PUSH2 0x67E JUMP JUMPDEST DUP1 ISZERO PUSH2 0x4C0 JUMPI DUP1 PUSH1 0x1F LT PUSH2 0x495 JUMPI PUSH2 0x100 DUP1 DUP4 SLOAD DIV MUL DUP4 MSTORE SWAP2 PUSH1 0x20 ADD SWAP2 PUSH2 0x4C0 JUMP JUMPDEST DUP3 ADD SWAP2 SWAP1 PUSH1 0x0 MSTORE PUSH1 0x20 PUSH1 0x0 KECCAK256 SWAP1 JUMPDEST DUP2 SLOAD DUP2 MSTORE SWAP1 PUSH1 0x1 ADD SWAP1 PUSH1 0x20 ADD DUP1 DUP4 GT PUSH2 0x4A3 JUMPI DUP3 SWAP1 SUB PUSH1 0x1F AND DUP3 ADD SWAP2 JUMPDEST POP POP POP POP POP DUP2 JUMP JUMPDEST PUSH1 0x0 PUSH20 0xFFFFFFFFFFFFFFFFFFFFFFFFFFFFFFFFFFFFFFFF DUP3 AND SWAP1 POP SWAP2 SWAP1 POP JUMP JUMPDEST PUSH1 0x0 PUSH2 0x4F3 DUP3 PUSH2 0x4C8 JUMP JUMPDEST SWAP1 POP SWAP2 SWAP1 POP JUMP JUMPDEST PUSH2 0x503 DUP2 PUSH2 0x4E8 JUMP JUMPDEST DUP3 MSTORE POP POP JUMP JUMPDEST PUSH1 0x0 PUSH1 0x20 DUP3 ADD SWAP1 POP PUSH2 0x51E PUSH1 0x0 DUP4 ADD DUP5 PUSH2 0x4FA JUMP JUMPDEST SWAP3 SWAP2 POP POP JUMP JUMPDEST PUSH1 0x0 DUP2 MLOAD SWAP1 POP SWAP2 SWAP1 POP JUMP JUMPDEST PUSH1 0x0 DUP3 DUP3 MSTORE PUSH1 0x20 DUP3 ADD SWAP1 POP SWAP3 SWAP2 POP POP JUMP JUMPDEST PUSH1 0x0 JUMPDEST DUP4 DUP2 LT ISZERO PUSH2 0x55E JUMPI DUP1 DUP3 ADD MLOAD DUP2 DUP5 ADD MSTORE PUSH1 0x20 DUP2 ADD SWAP1 POP PUSH2 0x543 JUMP JUMPDEST DUP4 DUP2 GT ISZERO PUSH2 0x56D JUMPI PUSH1 0x0 DUP5 DUP5 ADD MSTORE JUMPDEST POP POP POP POP JUMP JUMPDEST PUSH1 0x0 PUSH1 0x1F NOT PUSH1 0x1F DUP4 ADD AND SWAP1 POP SWAP2 SWAP1 POP JUMP JUMPDEST PUSH1 0x0 PUSH2 0x58F DUP3 PUSH2 0x524 JUMP JUMPDEST PUSH2 0x599 DUP2 DUP6 PUSH2 0x52F JUMP JUMPDEST SWAP4 POP PUSH2 0x5A9 DUP2 DUP6 PUSH1 0x20 DUP7 ADD PUSH2 0x540 JUMP JUMPDEST PUSH2 0x5B2 DUP2 PUSH2 0x573 JUMP JUMPDEST DUP5 ADD SWAP2 POP POP SWAP3 SWAP2 POP POP JUMP JUMPDEST PUSH1 0x0 PUSH1 0x20 DUP3 ADD SWAP1 POP DUP2 DUP2 SUB PUSH1 0x0 DUP4 ADD MSTORE PUSH2 0x5D7 DUP2 DUP5 PUSH2 0x584 JUMP JUMPDEST SWAP1 POP SWAP3 SWAP2 POP POP JUMP JUMPDEST PUSH1 0x0 DUP2 SWAP1 POP SWAP2 SWAP1 POP JUMP JUMPDEST PUSH2 0x5F2 DUP2 PUSH2 0x5DF JUMP JUMPDEST DUP3 MSTORE POP POP JUMP JUMPDEST PUSH1 0x0 PUSH1 0x20 DUP3 ADD SWAP1 POP PUSH2 0x60D PUSH1 0x0 DUP4 ADD DUP5 PUSH2 0x5E9 JUMP JUMPDEST SWAP3 SWAP2 POP POP JUMP JUMPDEST PUSH1 0x0 PUSH2 0x61E DUP3 PUSH2 0x4C8 JUMP JUMPDEST SWAP1 POP SWAP2 SWAP1 POP JUMP JUMPDEST PUSH2 0x62E DUP2 PUSH2 0x613 JUMP JUMPDEST DUP3 MSTORE POP POP JUMP JUMPDEST PUSH1 0x0 PUSH1 0x20 DUP3 ADD SWAP1 POP PUSH2 0x649 PUSH1 0x0 DUP4 ADD DUP5 PUSH2 0x625 JUMP JUMPDEST SWAP3 SWAP2 POP POP JUMP JUMPDEST PUSH32 0x4E487B7100000000000000000000000000000000000000000000000000000000 PUSH1 0x0 MSTORE PUSH1 0x22 PUSH1 0x4 MSTORE PUSH1 0x24 PUSH1 0x0 REVERT JUMPDEST PUSH1 0x0 PUSH1 0x2 DUP3 DIV SWAP1 POP PUSH1 0x1 DUP3 AND DUP1 PUSH2 0x696 JUMPI PUSH1 0x7F DUP3 AND SWAP2 POP JUMPDEST PUSH1 0x20 DUP3 LT DUP2 EQ ISZERO PUSH2 0x6AA JUMPI PUSH2 0x6A9 PUSH2 0x64F JUMP JUMPDEST JUMPDEST POP SWAP2 SWAP1 POP JUMP JUMPDEST PUSH32 0x726571756972656420616D6F756E742066756C6C66696C6C6564000000000000 PUSH1 0x0 DUP3 ADD MSTORE POP JUMP JUMPDEST PUSH1 0x0 PUSH2 0x6E6 PUSH1 0x1A DUP4 PUSH2 0x52F JUMP JUMPDEST SWAP2 POP PUSH2 0x6F1 DUP3 PUSH2 0x6B0 JUMP JUMPDEST PUSH1 0x20 DUP3 ADD SWAP1 POP SWAP2 SWAP1 POP JUMP JUMPDEST PUSH1 0x0 PUSH1 0x20 DUP3 ADD SWAP1 POP DUP2 DUP2 SUB PUSH1 0x0 DUP4 ADD MSTORE PUSH2 0x715 DUP2 PUSH2 0x6D9 JUMP JUMPDEST SWAP1 POP SWAP2 SWAP1 POP JUMP JUMPDEST PUSH32 0x4E487B7100000000000000000000000000000000000000000000000000000000 PUSH1 0x0 MSTORE PUSH1 0x11 PUSH1 0x4 MSTORE PUSH1 0x24 PUSH1 0x0 REVERT JUMPDEST PUSH1 0x0 PUSH2 0x756 DUP3 PUSH2 0x5DF JUMP JUMPDEST SWAP2 POP PUSH2 0x761 DUP4 PUSH2 0x5DF JUMP JUMPDEST SWAP3 POP DUP3 PUSH32 0xFFFFFFFFFFFFFFFFFFFFFFFFFFFFFFFFFFFFFFFFFFFFFFFFFFFFFFFFFFFFFFFF SUB DUP3 GT ISZERO PUSH2 0x796 JUMPI PUSH2 0x795 PUSH2 0x71C JUMP JUMPDEST JUMPDEST DUP3 DUP3 ADD SWAP1 POP SWAP3 SWAP2 POP POP JUMP INVALID LOG2 PUSH5 0x6970667358 0x22 SLT KECCAK256 0xD8 GT DIFFICULTY 0x4C STOP 0xE4 0x21 0x2B 0xA7 0xAB 0x1F 0xC9 0xF7 0xFB DUP9 0xD2 0x21 POP SWAP11 0xBD COINBASE PUSH29 0x204D6C1929ABAA4431D764736F6C634300080A0033A264697066735822 SLT KECCAK256 SUB XOR 0x21 OR ISZERO CALLDATASIZE CREATE 0xB4 0xB0 RETURN 0xEA 0xDB NOT PUSH8 0xAB52B80CE954AC44 SIGNEXTEND 0xE6 0xB5 0xD1 0x2A EQ TIMESTAMP SLT 0xF 0xC5 PUSH5 0x736F6C6343 STOP ADDMOD EXP STOP CALLER "
        },
        "methodIdentifiers": {
          "createCampaign(string,uint256,string,string,string,address)": "489b2802",
          "deployedCampaigns(uint256)": "339d50a5"
        }
      }
    }
  }
}