{
  "_format": "hh-sol-artifact-1",
  "contractName": "Campaign",
  "sourceName": "contracts/Campaign.sol",
  "abi": [
    {
      "inputs": [
        {
          "internalType": "string",
          "name": "campaignTitle",
          "type": "string"
        },
        {
          "internalType": "uint256",
          "name": "requiredCampaignAmount",
          "type": "uint256"
        },
        {
          "internalType": "string",
          "name": "imgURI",
          "type": "string"
        },
        {
          "internalType": "string",
          "name": "storyURI",
          "type": "string"
        },
        {
          "internalType": "address",
          "name": "campaignOwner",
          "type": "address"
        },
        {
          "internalType": "address",
          "name": "campaignVendor",
          "type": "address"
        }
      ],
      "stateMutability": "nonpayable",
      "type": "constructor"
    },
    {
      "anonymous": false,
      "inputs": [
        {
          "indexed": true,
          "internalType": "address",
          "name": "donar",
          "type": "address"
        },
        {
          "indexed": true,
          "internalType": "uint256",
          "name": "amount",
          "type": "uint256"
        },
        {
          "indexed": true,
          "internalType": "uint256",
          "name": "timestamp",
          "type": "uint256"
        }
      ],
      "name": "donated",
      "type": "event"
    },
    {
      "inputs": [],
      "name": "donate",
      "outputs": [],
      "stateMutability": "payable",
      "type": "function"
    },
    {
      "inputs": [],
      "name": "image",
      "outputs": [
        {
          "internalType": "string",
          "name": "",
          "type": "string"
        }
      ],
      "stateMutability": "view",
      "type": "function"
    },
    {
      "inputs": [],
      "name": "owner",
      "outputs": [
        {
          "internalType": "address",
          "name": "",
          "type": "address"
        }
      ],
      "stateMutability": "view",
      "type": "function"
    },
    {
      "inputs": [],
      "name": "receivedAmount",
      "outputs": [
        {
          "internalType": "uint256",
          "name": "",
          "type": "uint256"
        }
      ],
      "stateMutability": "view",
      "type": "function"
    },
    {
      "inputs": [],
      "name": "requiredAmount",
      "outputs": [
        {
          "internalType": "uint256",
          "name": "",
          "type": "uint256"
        }
      ],
      "stateMutability": "view",
      "type": "function"
    },
    {
      "inputs": [],
      "name": "story",
      "outputs": [
        {
          "internalType": "string",
          "name": "",
          "type": "string"
        }
      ],
      "stateMutability": "view",
      "type": "function"
    },
    {
      "inputs": [],
      "name": "title",
      "outputs": [
        {
          "internalType": "string",
          "name": "",
          "type": "string"
        }
      ],
      "stateMutability": "view",
      "type": "function"
    },
    {
      "inputs": [],
      "name": "vendor",
      "outputs": [
        {
          "internalType": "address payable",
          "name": "",
          "type": "address"
        }
      ],
      "stateMutability": "view",
      "type": "function"
    }
  ],
  "bytecode": "0x60806040523480156200001157600080fd5b5060405162000d4938038062000d49833981810160405281019062000037919062000404565b85600090805190602001906200004f92919062000117565b508460018190555083600290805190602001906200006f92919062000117565b5082600390805190602001906200008892919062000117565b5081600460006101000a81548173ffffffffffffffffffffffffffffffffffffffff021916908373ffffffffffffffffffffffffffffffffffffffff16021790555080600660006101000a81548173ffffffffffffffffffffffffffffffffffffffff021916908373ffffffffffffffffffffffffffffffffffffffff16021790555050505050505062000562565b82805462000125906200052c565b90600052602060002090601f01602090048101928262000149576000855562000195565b82601f106200016457805160ff191683800117855562000195565b8280016001018555821562000195579182015b828111156200019457825182559160200191906001019062000177565b5b509050620001a49190620001a8565b5090565b5b80821115620001c3576000816000905550600101620001a9565b5090565b6000604051905090565b600080fd5b600080fd5b600080fd5b600080fd5b6000601f19601f8301169050919050565b7f4e487b7100000000000000000000000000000000000000000000000000000000600052604160045260246000fd5b6200023082620001e5565b810181811067ffffffffffffffff82111715620002525762000251620001f6565b5b80604052505050565b600062000267620001c7565b905062000275828262000225565b919050565b600067ffffffffffffffff821115620002985762000297620001f6565b5b620002a382620001e5565b9050602081019050919050565b60005b83811015620002d0578082015181840152602081019050620002b3565b83811115620002e0576000848401525b50505050565b6000620002fd620002f7846200027a565b6200025b565b9050828152602081018484840111156200031c576200031b620001e0565b5b62000329848285620002b0565b509392505050565b600082601f830112620003495762000348620001db565b5b81516200035b848260208601620002e6565b91505092915050565b6000819050919050565b620003798162000364565b81146200038557600080fd5b50565b60008151905062000399816200036e565b92915050565b600073ffffffffffffffffffffffffffffffffffffffff82169050919050565b6000620003cc826200039f565b9050919050565b620003de81620003bf565b8114620003ea57600080fd5b50565b600081519050620003fe81620003d3565b92915050565b60008060008060008060c08789031215620004245762000423620001d1565b5b600087015167ffffffffffffffff811115620004455762000444620001d6565b5b6200045389828a0162000331565b96505060206200046689828a0162000388565b955050604087015167ffffffffffffffff8111156200048a5762000489620001d6565b5b6200049889828a0162000331565b945050606087015167ffffffffffffffff811115620004bc57620004bb620001d6565b5b620004ca89828a0162000331565b9350506080620004dd89828a01620003ed565b92505060a0620004f089828a01620003ed565b9150509295509295509295565b7f4e487b7100000000000000000000000000000000000000000000000000000000600052602260045260246000fd5b600060028204905060018216806200054557607f821691505b602082108114156200055c576200055b620004fd565b5b50919050565b6107d780620005726000396000f3fe60806040526004361061007b5760003560e01c80638da5cb5b1161004e5780638da5cb5b1461012c5780639632e72014610157578063ed88c68e14610182578063f3ccaac01461018c5761007b565b80631385a6f21461008057806346c922d1146100ab57806348b9ef40146100d65780634a79d50c14610101575b600080fd5b34801561008c57600080fd5b506100956101b7565b6040516100a29190610509565b60405180910390f35b3480156100b757600080fd5b506100c06101dd565b6040516100cd91906105bd565b60405180910390f35b3480156100e257600080fd5b506100eb61026b565b6040516100f891906105f8565b60405180910390f35b34801561010d57600080fd5b50610116610271565b60405161012391906105bd565b60405180910390f35b34801561013857600080fd5b506101416102ff565b60405161014e9190610634565b60405180910390f35b34801561016357600080fd5b5061016c610325565b60405161017991906105f8565b60405180910390f35b61018a61032b565b005b34801561019857600080fd5b506101a161043a565b6040516101ae91906105bd565b60405180910390f35b600660009054906101000a900473ffffffffffffffffffffffffffffffffffffffff1681565b600380546101ea9061067e565b80601f01602080910402602001604051908101604052809291908181526020018280546102169061067e565b80156102635780601f1061023857610100808354040283529160200191610263565b820191906000526020600020905b81548152906001019060200180831161024657829003601f168201915b505050505081565b60015481565b6000805461027e9061067e565b80601f01602080910402602001604051908101604052809291908181526020018280546102aa9061067e565b80156102f75780601f106102cc576101008083540402835291602001916102f7565b820191906000526020600020905b8154815290600101906020018083116102da57829003601f168201915b505050505081565b600460009054906101000a900473ffffffffffffffffffffffffffffffffffffffff1681565b60055481565b60055460015411610371576040517f08c379a0000000000000000000000000000000000000000000000000000000008152600401610368906106fc565b60405180910390fd5b600660009054906101000a900473ffffffffffffffffffffffffffffffffffffffff1673ffffffffffffffffffffffffffffffffffffffff166108fc349081150290604051600060405180830381858888f193505050501580156103d9573d6000803e3d6000fd5b5034600560008282546103ec919061074b565b9250508190555042343373ffffffffffffffffffffffffffffffffffffffff167fe6add99d06d9ad7fc456e746aa162eed6211c5002ef2dacdd67b8d2016822fba60405160405180910390a4565b600280546104479061067e565b80601f01602080910402602001604051908101604052809291908181526020018280546104739061067e565b80156104c05780601f10610495576101008083540402835291602001916104c0565b820191906000526020600020905b8154815290600101906020018083116104a357829003601f168201915b505050505081565b600073ffffffffffffffffffffffffffffffffffffffff82169050919050565b60006104f3826104c8565b9050919050565b610503816104e8565b82525050565b600060208201905061051e60008301846104fa565b92915050565b600081519050919050565b600082825260208201905092915050565b60005b8381101561055e578082015181840152602081019050610543565b8381111561056d576000848401525b50505050565b6000601f19601f8301169050919050565b600061058f82610524565b610599818561052f565b93506105a9818560208601610540565b6105b281610573565b840191505092915050565b600060208201905081810360008301526105d78184610584565b905092915050565b6000819050919050565b6105f2816105df565b82525050565b600060208201905061060d60008301846105e9565b92915050565b600061061e826104c8565b9050919050565b61062e81610613565b82525050565b60006020820190506106496000830184610625565b92915050565b7f4e487b7100000000000000000000000000000000000000000000000000000000600052602260045260246000fd5b6000600282049050600182168061069657607f821691505b602082108114156106aa576106a961064f565b5b50919050565b7f726571756972656420616d6f756e742066756c6c66696c6c6564000000000000600082015250565b60006106e6601a8361052f565b91506106f1826106b0565b602082019050919050565b60006020820190508181036000830152610715816106d9565b9050919050565b7f4e487b7100000000000000000000000000000000000000000000000000000000600052601160045260246000fd5b6000610756826105df565b9150610761836105df565b9250827fffffffffffffffffffffffffffffffffffffffffffffffffffffffffffffffff038211156107965761079561071c565b5b82820190509291505056fea2646970667358221220d811444c00e4212ba7ab1fc9f7fb88d221509abd417c204d6c1929abaa4431d764736f6c634300080a0033",
  "linkReferences": {},
  "deployedLinkReferences": {}
}